:090000000202F103A5037D039146
:10000B00020184EFD3940240037FFF2274132F2F3E
:10001B00F8E620E5F4C2AFE64430F6D2AFAE0CEE14
:10002B00C39F50210E74182EF8E6F908E618BE028D
:10003B000274FFFDED69600909E71919F7090980D9
:10004B00F3161680DAEED39F400405810581EED3BB
:10005B009F402274182EF808E6F9EEB50C02A98120
:10006B00180606E6FDED6960091919E70909F71984
:10007B0080F31E80D9EF2418F8E604F8EF2F0490D4
:10008B00000393F608EF2F93F67F0022EFD3940231
:10009B0040037FFF22EF232413F8E630E5F4C2AFD1
:1000AB00E6548CF6D2AFE50CB5070A74182FF8E6B8
:1000BB00F5810201FA502E74192FF8E6BF02027473
:1000CB00FFFD18E6F974182FF8FBE6FCE96C6008E5
:1000DB00A805E7F61D1980F4A803A6051FE50CB5C6
:1000EB0007E37F002274192FF8E6FD1886010F74C1
:1000FB00182FF8A601088604E50CB50702AC81EDB4
:10010B006C60080D09A805E6F780F4E50CB507DE71
:10011B0089817F00228FF0E4FFFEE50C232412F887
:10012B00C2A930F70D7F08E6600B2DF66032503018
:10013B00800730F106EDF660277E020830F010C222
:10014B00AFE610E7250E30E20CD2AF7F048014C26D
:10015B00AFE610E71554EC4EF6D2AFD2A90201FA76
:10016B007F0808EF4483F4C2AF56C6D2AFD2A9546E
:10017B00804FFF22C2AF80FE3212018385D00B75F8
:10018B00D008AAE0C28CE58A24F7F58AE58C34D82E
:10019B00F58CD28CEC2419F8E6BC020274FFC395E3
:1001AB0081B4140040CE7903781216E608700BC2A6
:1001BB00AFE630E1034418F6D2AF08D9EDEA8BD0A5
:1001CB0030000122D50DFCC0E0C0D0C0F0C083C010
:1001DB0082C000C001C002C003C004C005C006C07D
:1001EB0007E50C232413F87440C2AF46F6D2AFD206
:1001FB0000E50CFF232413F80F0808BF03047F004E
:10020B007813E630E4F200E50CC39F5020050C7424
:10021B0018250CF8E6FDA68108E6AE0CBE020274AA
:10022B00FFCDF8E86D60E008E6C0E080F6E50CD3A2
:10023B009F4027E50C2419F8E6AE0CBE020274FFB2
:10024B00FD18E6CDF8E5816D6006D0E0F61880F577
:10025B00E50C2418C8F6150C80D3750D05E50C2399
:10026B002413F87F04C2AFE610E61E30E00310E261
:10027B000C7F0030E10730E3047F0854F4547CC654
:10028B00D2AF54804207C20022F6D2AFD007D006BD
:10029B00D005D004D003D002D001D000D082D083BF
:1002AB00D0F0D0D0D0E0C200227818A681740260C2
:1002BB0006FF0876FFDFFB7F03E47812F608F608EB
:1002CB00DFFA78137630900003740193C0E0E49367
:1002DB00C0E0750D05438901758AF0758CD8D28CF9
:1002EB00D2AFD2A92202787FE4F6D8FD7581200225
:1002FB0003380202B4E493A3F8E493A34003F6801B
:10030B0001F208DFF48029E493A3F85407240CC806
:10031B00C333C4540F4420C8834004F456800146B1
:10032B00F6DFE4800B01020408102040809003B438
:10033B00E47E019360BCA3FF543F30E509541FFEDC
:10034B00E493A360010ECF54C025E060A840B8E44D
:10035B0093A3FAE493A3F8E493A3C8C582C8CAC5D0
:10036B0083CAF0A3C8C582C8CAC583CADFE9DEE762
:10037B0080BE7D037F80120120D2A07D057F80127D
:10038B000120C2A080EC7D077F80120120D2A17DCD
:10039B00037F80120120C2A180EC7F0112000E7F2F
:1003AB000212000EE4FF020097020E000002100082
:0203BB00000040
:00000001FF
