:0800F80002080000020A0000EA
:10008F00C2A1C2A0758901758AFF758CEDD28C3023
:10009F008D210509E50970020508050BE50B7002B6
:1000AF00050AB2A3C28C758901758AFF758CEDD2D2
:1000BF008CC28DE509641045087008C2A0F508F5DB
:1000CF0009800AE509640645087002D2A0E50B64B1
:1000DF0006450A7004C2A180B6E50B6414450A7088
:0900EF00AED2A1F50AF50B80A6C2
:03000000020003F8
:0C000300787FE4F6D8FD75810B02004AFE
:10000F0002008FE493A3F8E493A34003F68001F278
:10001F0008DFF48029E493A3F85407240CC8C333F2
:10002F00C4540F4420C8834004F456800146F6DFC1
:10003F00E4800B01020408102040809000F8E47E59
:10004F00019360BCA3FF543F30E509541FFEE493B6
:10005F00A360010ECF54C025E060A840B8E493A37D
:10006F00FAE493A3F8E493A3C8C582C8CAC583CAA8
:10007F00F0A3C8C582C8CAC583CADFE9DEE780BE60
:0101000000FE
:00000001FF
