:03000000020800F3
:0C080000787FE4F6D8FD75811F020847E0
:10091A001808000000000000000036494141221476
:0A092A0008000000000000000000BB
:0908FE00AE82EE2D2408F8E6FF9D
:10090700E4FEEF139297EFC313FFD2B3C2B30EBE49
:0209170008F0E6
:0109190022BB
:10088C00900000E4FAFBD2B5E4FCFD1208FED2B4F1
:10089C00C2B4C2B50DBD00010CED64084C70EC0B7C
:1008AC00BB00010ABA01DFBBF4DCA3E5826410458E
:1008BC008370D090000FD3E5829400E583940040C0
:1008CC00BFE4FAFBD2B5E4FCFD1208FED2B4C2B40C
:1008DC00C2B50DBD00010CED64084C70EC0BBB00F7
:1008EC00010ABA01DFBBF4DCE582158270C81583FE
:0208FC0080C4B6
:10080C0002088CE493A3F8E493A34003F68001F26E
:10081C0008DFF48029E493A3F85407240CC8C333ED
:10082C00C4540F4420C8834004F456800146F6DFBC
:10083C00E4800B010204081020408090091AE47E29
:10084C00019360BCA3FF543F30E509541FFEE493B1
:10085C00A360010ECF54C025E060A840B8E493A378
:10086C00FAE493A3F8E493A3C8C582C8CAC583CAA3
:10087C00F0A3C8C582C8CAC583CADFE9DEE780BE5B
:0109340000C2
:00000001FF
