:0A00F9000808000000FFFF000000EF
:10008F00D2B5E4FFFE74082FF8E6FDE4F510F51184
:10009F00ED75F0021200D7ACF0EC24FF9297EDA2B1
:1000AF00E713FDD2B3C2B30511E511700205106459
:1000BF0008451070DBD2B4C2B4C2B50FBF00010E39
:0800CF00EF64084E70BF80B819
:03000000020003F8
:0C000300787FE4F6D8FD75811102004AF8
:1000D700C2D530F707B2D563F0FF05F030E70CB2B1
:1000E700D5F4048463F0FF05F080018430D502F471
:0200F7000422E1
:10000F0002008FE493A3F8E493A34003F68001F278
:10001F0008DFF48029E493A3F85407240CC8C333F2
:10002F00C4540F4420C8834004F456800146F6DFC1
:10003F00E4800B01020408102040809000F9E47E58
:10004F00019360BCA3FF543F30E509541FFEE493B6
:10005F00A360010ECF54C025E060A840B8E493A37D
:10006F00FAE493A3F8E493A3C8C582C8CAC583CAA8
:10007F00F0A3C8C582C8CAC583CADFE9DEE780BE60
:0101030000FB
:00000001FF
