:080188007C7E667C7C6E6663E0
:10011B0078087C007D007BFF7A0179887E007F0860
:10012B001200D3D2B5E4F510F51174082511F8E6D9
:10013B00FFE4F512F513EF75F0021200F9AEF0EED5
:10014B0024FF9297EFA2E713FFD2B3C2B30513E5D7
:10015B0013700205126408451270DBD2B4C2B4C22C
:10016B00B50511E511700205106408451070BB80D0
:01017B00B2D1
:0300000002017C7E
:0C017C00787FE4F6D8FD75811302011BAA
:10000300E709F608DFFA8046E709F208DFFA803EDF
:1000130088828C83E709F0A3DFFA8032E309F608CC
:10002300DFFA8078E309F208DFFA807088828C8334
:10003300E309F0A3DFFA806489828A83E0A3F608E8
:10004300DFFA805889828A83E0A3F208DFFA804CC2
:1000530080D280FA80C680D4806980F28033801099
:1000630080A680EA809A80A880DA80E280CA803302
:1000730089828A83ECFAE493A3C8C582C8CCC5837A
:10008300CCF0A3C8C582C8CCC583CCDFE9DEE7804A
:100093000D89828A83E493A3F608DFF9ECFAA9F0C9
:1000A300EDFB2289828A83ECFAE0A3C8C582C8CC1F
:1000B300C583CCF0A3C8C582C8CCC583CCDFEADE38
:1000C300E880DB89828A83E493A3F208DFF980CC9A
:1000D30088F0EF60010E4E60C388F0ED2402B40493
:1000E3000050B9F582EB2402B4040050AF2323453A
:0600F3008223900053730C
:1000F900C2D530F707B2D563F0FF05F030E70CB28F
:10010900D5F4048463F0FF05F080018430D502F44E
:020119000422BE
:00000001FF
