:08018B00636366787866636324
:10011B0078087C007D007BFF7A01798B7E007F085D
:10012B001200D3E4F590D2B5E4F510F5117408255F
:10013B0011F8E6FFE4F512F513EF75F0021200F972
:10014B00AEF0EE24FF9297EFA2E713FFD2B3C2B348
:10015B000513E513700205126408451270DBD2B467
:10016B00C2B4C2B50511E511700205106408451043
:04017B0070BB80B223
:0300000002017F7B
:0C017F00787FE4F6D8FD75811302011BA7
:10000300E709F608DFFA8046E709F208DFFA803EDF
:1000130088828C83E709F0A3DFFA8032E309F608CC
:10002300DFFA8078E309F208DFFA807088828C8334
:10003300E309F0A3DFFA806489828A83E0A3F608E8
:10004300DFFA805889828A83E0A3F208DFFA804CC2
:1000530080D280FA80C680D4806980F28033801099
:1000630080A680EA809A80A880DA80E280CA803302
:1000730089828A83ECFAE493A3C8C582C8CCC5837A
:10008300CCF0A3C8C582C8CCC583CCDFE9DEE7804A
:100093000D89828A83E493A3F608DFF9ECFAA9F0C9
:1000A300EDFB2289828A83ECFAE0A3C8C582C8CC1F
:1000B300C583CCF0A3C8C582C8CCC583CCDFEADE38
:1000C300E880DB89828A83E493A3F208DFF980CC9A
:1000D30088F0EF60010E4E60C388F0ED2402B40493
:1000E3000050B9F582EB2402B4040050AF2323453A
:0600F3008223900053730C
:1000F900C2D530F707B2D563F0FF05F030E70CB28F
:10010900D5F4048463F0FF05F080018430D502F44E
:020119000422BE
:00000001FF
